{
  "contractName": "Grader",
  "abi": [
    {
      "inputs": [],
      "stateMutability": "nonpayable",
      "type": "constructor"
    },
    {
      "anonymous": false,
      "inputs": [
        {
          "indexed": true,
          "internalType": "address",
          "name": "owner",
          "type": "address"
        },
        {
          "indexed": true,
          "internalType": "address",
          "name": "spender",
          "type": "address"
        },
        {
          "indexed": false,
          "internalType": "uint256",
          "name": "value",
          "type": "uint256"
        }
      ],
      "name": "Approval",
      "type": "event"
    },
    {
      "anonymous": false,
      "inputs": [
        {
          "indexed": true,
          "internalType": "address",
          "name": "previousOwner",
          "type": "address"
        },
        {
          "indexed": true,
          "internalType": "address",
          "name": "newOwner",
          "type": "address"
        }
      ],
      "name": "OwnershipTransferred",
      "type": "event"
    },
    {
      "anonymous": false,
      "inputs": [
        {
          "indexed": true,
          "internalType": "address",
          "name": "_from",
          "type": "address"
        },
        {
          "indexed": true,
          "internalType": "uint256",
          "name": "_id",
          "type": "uint256"
        },
        {
          "indexed": false,
          "internalType": "string",
          "name": "msg",
          "type": "string"
        }
      ],
      "name": "TeacherEvent",
      "type": "event"
    },
    {
      "anonymous": false,
      "inputs": [
        {
          "indexed": true,
          "internalType": "address",
          "name": "from",
          "type": "address"
        },
        {
          "indexed": true,
          "internalType": "address",
          "name": "to",
          "type": "address"
        },
        {
          "indexed": false,
          "internalType": "uint256",
          "name": "value",
          "type": "uint256"
        }
      ],
      "name": "Transfer",
      "type": "event"
    },
    {
      "inputs": [
        {
          "internalType": "address",
          "name": "owner",
          "type": "address"
        },
        {
          "internalType": "address",
          "name": "spender",
          "type": "address"
        }
      ],
      "name": "allowance",
      "outputs": [
        {
          "internalType": "uint256",
          "name": "",
          "type": "uint256"
        }
      ],
      "stateMutability": "view",
      "type": "function",
      "constant": true
    },
    {
      "inputs": [
        {
          "internalType": "address",
          "name": "spender",
          "type": "address"
        },
        {
          "internalType": "uint256",
          "name": "amount",
          "type": "uint256"
        }
      ],
      "name": "approve",
      "outputs": [
        {
          "internalType": "bool",
          "name": "",
          "type": "bool"
        }
      ],
      "stateMutability": "nonpayable",
      "type": "function"
    },
    {
      "inputs": [
        {
          "internalType": "address",
          "name": "account",
          "type": "address"
        }
      ],
      "name": "balanceOf",
      "outputs": [
        {
          "internalType": "uint256",
          "name": "",
          "type": "uint256"
        }
      ],
      "stateMutability": "view",
      "type": "function",
      "constant": true
    },
    {
      "inputs": [],
      "name": "decimals",
      "outputs": [
        {
          "internalType": "uint8",
          "name": "",
          "type": "uint8"
        }
      ],
      "stateMutability": "view",
      "type": "function",
      "constant": true
    },
    {
      "inputs": [
        {
          "internalType": "address",
          "name": "spender",
          "type": "address"
        },
        {
          "internalType": "uint256",
          "name": "subtractedValue",
          "type": "uint256"
        }
      ],
      "name": "decreaseAllowance",
      "outputs": [
        {
          "internalType": "bool",
          "name": "",
          "type": "bool"
        }
      ],
      "stateMutability": "nonpayable",
      "type": "function"
    },
    {
      "inputs": [
        {
          "internalType": "address",
          "name": "spender",
          "type": "address"
        },
        {
          "internalType": "uint256",
          "name": "addedValue",
          "type": "uint256"
        }
      ],
      "name": "increaseAllowance",
      "outputs": [
        {
          "internalType": "bool",
          "name": "",
          "type": "bool"
        }
      ],
      "stateMutability": "nonpayable",
      "type": "function"
    },
    {
      "inputs": [],
      "name": "name",
      "outputs": [
        {
          "internalType": "string",
          "name": "",
          "type": "string"
        }
      ],
      "stateMutability": "view",
      "type": "function",
      "constant": true
    },
    {
      "inputs": [],
      "name": "owner",
      "outputs": [
        {
          "internalType": "address",
          "name": "",
          "type": "address"
        }
      ],
      "stateMutability": "view",
      "type": "function",
      "constant": true
    },
    {
      "inputs": [],
      "name": "renounceOwnership",
      "outputs": [],
      "stateMutability": "nonpayable",
      "type": "function"
    },
    {
      "inputs": [],
      "name": "symbol",
      "outputs": [
        {
          "internalType": "string",
          "name": "",
          "type": "string"
        }
      ],
      "stateMutability": "view",
      "type": "function",
      "constant": true
    },
    {
      "inputs": [
        {
          "internalType": "address",
          "name": "",
          "type": "address"
        }
      ],
      "name": "teacherAddrToID",
      "outputs": [
        {
          "internalType": "uint256",
          "name": "",
          "type": "uint256"
        }
      ],
      "stateMutability": "view",
      "type": "function",
      "constant": true
    },
    {
      "inputs": [
        {
          "internalType": "address",
          "name": "",
          "type": "address"
        },
        {
          "internalType": "uint256",
          "name": "",
          "type": "uint256"
        }
      ],
      "name": "teacherToStudents",
      "outputs": [
        {
          "internalType": "address",
          "name": "",
          "type": "address"
        }
      ],
      "stateMutability": "view",
      "type": "function",
      "constant": true
    },
    {
      "inputs": [
        {
          "internalType": "uint256",
          "name": "",
          "type": "uint256"
        }
      ],
      "name": "teachers",
      "outputs": [
        {
          "internalType": "uint256",
          "name": "id",
          "type": "uint256"
        },
        {
          "internalType": "string",
          "name": "name",
          "type": "string"
        },
        {
          "internalType": "string",
          "name": "deparment",
          "type": "string"
        },
        {
          "internalType": "address",
          "name": "addr",
          "type": "address"
        }
      ],
      "stateMutability": "view",
      "type": "function",
      "constant": true
    },
    {
      "inputs": [],
      "name": "totalSupply",
      "outputs": [
        {
          "internalType": "uint256",
          "name": "",
          "type": "uint256"
        }
      ],
      "stateMutability": "view",
      "type": "function",
      "constant": true
    },
    {
      "inputs": [
        {
          "internalType": "address",
          "name": "to",
          "type": "address"
        },
        {
          "internalType": "uint256",
          "name": "amount",
          "type": "uint256"
        }
      ],
      "name": "transfer",
      "outputs": [
        {
          "internalType": "bool",
          "name": "",
          "type": "bool"
        }
      ],
      "stateMutability": "nonpayable",
      "type": "function"
    },
    {
      "inputs": [
        {
          "internalType": "address",
          "name": "from",
          "type": "address"
        },
        {
          "internalType": "address",
          "name": "to",
          "type": "address"
        },
        {
          "internalType": "uint256",
          "name": "amount",
          "type": "uint256"
        }
      ],
      "name": "transferFrom",
      "outputs": [
        {
          "internalType": "bool",
          "name": "",
          "type": "bool"
        }
      ],
      "stateMutability": "nonpayable",
      "type": "function"
    },
    {
      "inputs": [
        {
          "internalType": "address",
          "name": "newOwner",
          "type": "address"
        }
      ],
      "name": "transferOwnership",
      "outputs": [],
      "stateMutability": "nonpayable",
      "type": "function"
    },
    {
      "inputs": [
        {
          "internalType": "string",
          "name": "name",
          "type": "string"
        },
        {
          "internalType": "string",
          "name": "department",
          "type": "string"
        },
        {
          "internalType": "address",
          "name": "addr",
          "type": "address"
        }
      ],
      "name": "setTeacher",
      "outputs": [],
      "stateMutability": "nonpayable",
      "type": "function"
    },
    {
      "inputs": [
        {
          "internalType": "uint256",
          "name": "teacherID",
          "type": "uint256"
        },
        {
          "internalType": "address",
          "name": "studentAddr",
          "type": "address"
        }
      ],
      "name": "addStudent",
      "outputs": [],
      "stateMutability": "nonpayable",
      "type": "function"
    },
    {
      "inputs": [
        {
          "internalType": "uint256",
          "name": "teacherID",
          "type": "uint256"
        },
        {
          "internalType": "address",
          "name": "studentAddr",
          "type": "address"
        },
        {
          "internalType": "uint32",
          "name": "grade",
          "type": "uint32"
        }
      ],
      "name": "giveReward",
      "outputs": [],
      "stateMutability": "nonpayable",
      "type": "function"
    }
  ],
  "bytecode": "0x608060405260006006553480156200001657600080fd5b506040518060400160405280600981526020017f43616e6572434f494e00000000000000000000000000000000000000000000008152506040518060400160405280600481526020017f434e52430000000000000000000000000000000000000000000000000000000081525081600390805190602001906200009b9291906200030d565b508060049080519060200190620000b49291906200030d565b505050620000d7620000cb620000ee60201b60201c565b620000f660201b60201c565b620000e833620001bc60201b60201c565b6200053c565b600033905090565b6000600560009054906101000a900473ffffffffffffffffffffffffffffffffffffffff16905081600560006101000a81548173ffffffffffffffffffffffffffffffffffffffff021916908373ffffffffffffffffffffffffffffffffffffffff1602179055508173ffffffffffffffffffffffffffffffffffffffff168173ffffffffffffffffffffffffffffffffffffffff167f8be0079c531659141344cd1fd0a4f28419497f9722a3daafe3b4186f6b6457e060405160405180910390a35050565b620001cc6200025260201b60201c565b600073ffffffffffffffffffffffffffffffffffffffff168173ffffffffffffffffffffffffffffffffffffffff16036200023e576040517f08c379a0000000000000000000000000000000000000000000000000000000008152600401620002359062000444565b60405180910390fd5b6200024f81620000f660201b60201c565b50565b62000262620000ee60201b60201c565b73ffffffffffffffffffffffffffffffffffffffff1662000288620002e360201b60201c565b73ffffffffffffffffffffffffffffffffffffffff1614620002e1576040517f08c379a0000000000000000000000000000000000000000000000000000000008152600401620002d890620004b6565b60405180910390fd5b565b6000600560009054906101000a900473ffffffffffffffffffffffffffffffffffffffff16905090565b8280546200031b9062000507565b90600052602060002090601f0160209004810192826200033f57600085556200038b565b82601f106200035a57805160ff19168380011785556200038b565b828001600101855582156200038b579182015b828111156200038a5782518255916020019190600101906200036d565b5b5090506200039a91906200039e565b5090565b5b80821115620003b95760008160009055506001016200039f565b5090565b600082825260208201905092915050565b7f4f776e61626c653a206e6577206f776e657220697320746865207a65726f206160008201527f6464726573730000000000000000000000000000000000000000000000000000602082015250565b60006200042c602683620003bd565b91506200043982620003ce565b604082019050919050565b600060208201905081810360008301526200045f816200041d565b9050919050565b7f4f776e61626c653a2063616c6c6572206973206e6f7420746865206f776e6572600082015250565b60006200049e602083620003bd565b9150620004ab8262000466565b602082019050919050565b60006020820190508181036000830152620004d1816200048f565b9050919050565b7f4e487b7100000000000000000000000000000000000000000000000000000000600052602260045260246000fd5b600060028204905060018216806200052057607f821691505b602082108103620005365762000535620004d8565b5b50919050565b6122d7806200054c6000396000f3fe608060405234801561001057600080fd5b506004361061012c5760003560e01c8063715018a6116100ad578063a9059cbb11610071578063a9059cbb14610348578063ce48a96a14610378578063dd62ed3e146103a8578063e835cee6146103d8578063f2fde38b146104085761012c565b8063715018a6146102b65780638da5cb5b146102c057806395d89b41146102de578063a457c2d7146102fc578063a850c1801461032c5761012c565b8063313ce567116100f4578063313ce567146101e957806334ac0b4014610207578063395093511461023a57806358203e251461026a57806370a08231146102865761012c565b806306fdde0314610131578063095ea7b31461014f5780630b90cbc91461017f57806318160ddd1461019b57806323b872dd146101b9575b600080fd5b610139610424565b60405161014691906116b1565b60405180910390f35b6101696004803603810190610164919061177b565b6104b6565b60405161017691906117d6565b60405180910390f35b61019960048036038101906101949190611926565b6104d9565b005b6101a3610640565b6040516101b091906119c0565b60405180910390f35b6101d360048036038101906101ce91906119db565b61064a565b6040516101e091906117d6565b60405180910390f35b6101f1610679565b6040516101fe9190611a4a565b60405180910390f35b610221600480360381019061021c9190611a65565b610682565b6040516102319493929190611aa1565b60405180910390f35b610254600480360381019061024f919061177b565b6107f2565b60405161026191906117d6565b60405180910390f35b610284600480360381019061027f9190611b30565b610829565b005b6102a0600480360381019061029b9190611b83565b6109a7565b6040516102ad91906119c0565b60405180910390f35b6102be6109ef565b005b6102c8610a03565b6040516102d59190611bb0565b60405180910390f35b6102e6610a2d565b6040516102f391906116b1565b60405180910390f35b6103166004803603810190610311919061177b565b610abf565b60405161032391906117d6565b60405180910390f35b61034660048036038101906103419190611bcb565b610b36565b005b610362600480360381019061035d919061177b565b610c59565b60405161036f91906117d6565b60405180910390f35b610392600480360381019061038d9190611b83565b610c7c565b60405161039f91906119c0565b60405180910390f35b6103c260048036038101906103bd9190611c0b565b610c94565b6040516103cf91906119c0565b60405180910390f35b6103f260048036038101906103ed919061177b565b610d1b565b6040516103ff9190611bb0565b60405180910390f35b610422600480360381019061041d9190611b83565b610d69565b005b60606003805461043390611c7a565b80601f016020809104026020016040519081016040528092919081815260200182805461045f90611c7a565b80156104ac5780601f10610481576101008083540402835291602001916104ac565b820191906000526020600020905b81548152906001019060200180831161048f57829003601f168201915b5050505050905090565b6000806104c1610dec565b90506104ce818585610df4565b600191505092915050565b6000604051806080016040528060065481526020018581526020018481526020018373ffffffffffffffffffffffffffffffffffffffff1681525090506007819080600181540180825580915050600190039060005260206000209060040201600090919091909150600082015181600001556020820151816001019080519060200190610568929190611575565b506040820151816002019080519060200190610585929190611575565b5060608201518160030160006101000a81548173ffffffffffffffffffffffffffffffffffffffff021916908373ffffffffffffffffffffffffffffffffffffffff16021790555050506006543373ffffffffffffffffffffffffffffffffffffffff167f7c7447cef4df7060050a5ee862c8959ce804e4f5d967fc790723009dafd298858660405161061891906116b1565b60405180910390a36001600660008282546106339190611cda565b9250508190555050505050565b6000600254905090565b600080610655610dec565b9050610662858285610fbd565b61066d858585611049565b60019150509392505050565b60006012905090565b6007818154811061069257600080fd5b90600052602060002090600402016000915090508060000154908060010180546106bb90611c7a565b80601f01602080910402602001604051908101604052809291908181526020018280546106e790611c7a565b80156107345780601f1061070957610100808354040283529160200191610734565b820191906000526020600020905b81548152906001019060200180831161071757829003601f168201915b50505050509080600201805461074990611c7a565b80601f016020809104026020016040519081016040528092919081815260200182805461077590611c7a565b80156107c25780601f10610797576101008083540402835291602001916107c2565b820191906000526020600020905b8154815290600101906020018083116107a557829003601f168201915b5050505050908060030160009054906101000a900473ffffffffffffffffffffffffffffffffffffffff16905084565b6000806107fd610dec565b905061081e81858561080f8589610c94565b6108199190611cda565b610df4565b600191505092915050565b826007818154811061083e5761083d611d30565b5b906000526020600020906004020160030160009054906101000a900473ffffffffffffffffffffffffffffffffffffffff1673ffffffffffffffffffffffffffffffffffffffff163373ffffffffffffffffffffffffffffffffffffffff16146108a757600080fd5b60648263ffffffff16111580156108c45750605a8263ffffffff16115b156108d9576108d48360646112c8565b6109a1565b60508263ffffffff161180156108f65750605a8263ffffffff1611155b1561090b5761090683605a6112c8565b6109a0565b60468263ffffffff16118015610928575060508263ffffffff1611155b1561093d576109388360506112c8565b61099f565b603c8263ffffffff1611801561095a575060468263ffffffff1611155b1561096f5761096a8360466112c8565b61099e565b60328263ffffffff1611801561098c5750603c8263ffffffff1611155b1561099d5761099c83603c6112c8565b5b5b5b5b5b50505050565b60008060008373ffffffffffffffffffffffffffffffffffffffff1673ffffffffffffffffffffffffffffffffffffffff168152602001908152602001600020549050919050565b6109f7611427565b610a0160006114a5565b565b6000600560009054906101000a900473ffffffffffffffffffffffffffffffffffffffff16905090565b606060048054610a3c90611c7a565b80601f0160208091040260200160405190810160405280929190818152602001828054610a6890611c7a565b8015610ab55780601f10610a8a57610100808354040283529160200191610ab5565b820191906000526020600020905b815481529060010190602001808311610a9857829003601f168201915b5050505050905090565b600080610aca610dec565b90506000610ad88286610c94565b905083811015610b1d576040517f08c379a0000000000000000000000000000000000000000000000000000000008152600401610b1490611dd1565b60405180910390fd5b610b2a8286868403610df4565b60019250505092915050565b8160078181548110610b4b57610b4a611d30565b5b906000526020600020906004020160030160009054906101000a900473ffffffffffffffffffffffffffffffffffffffff1673ffffffffffffffffffffffffffffffffffffffff163373ffffffffffffffffffffffffffffffffffffffff1614610bb457600080fd5b600860003373ffffffffffffffffffffffffffffffffffffffff1673ffffffffffffffffffffffffffffffffffffffff168152602001908152602001600020829080600181540180825580915050600190039060005260206000200160009091909190916101000a81548173ffffffffffffffffffffffffffffffffffffffff021916908373ffffffffffffffffffffffffffffffffffffffff160217905550505050565b600080610c64610dec565b9050610c71818585611049565b600191505092915050565b60096020528060005260406000206000915090505481565b6000600160008473ffffffffffffffffffffffffffffffffffffffff1673ffffffffffffffffffffffffffffffffffffffff16815260200190815260200160002060008373ffffffffffffffffffffffffffffffffffffffff1673ffffffffffffffffffffffffffffffffffffffff16815260200190815260200160002054905092915050565b60086020528160005260406000208181548110610d3757600080fd5b906000526020600020016000915091509054906101000a900473ffffffffffffffffffffffffffffffffffffffff1681565b610d71611427565b600073ffffffffffffffffffffffffffffffffffffffff168173ffffffffffffffffffffffffffffffffffffffff1603610de0576040517f08c379a0000000000000000000000000000000000000000000000000000000008152600401610dd790611e63565b60405180910390fd5b610de9816114a5565b50565b600033905090565b600073ffffffffffffffffffffffffffffffffffffffff168373ffffffffffffffffffffffffffffffffffffffff1603610e63576040517f08c379a0000000000000000000000000000000000000000000000000000000008152600401610e5a90611ef5565b60405180910390fd5b600073ffffffffffffffffffffffffffffffffffffffff168273ffffffffffffffffffffffffffffffffffffffff1603610ed2576040517f08c379a0000000000000000000000000000000000000000000000000000000008152600401610ec990611f87565b60405180910390fd5b80600160008573ffffffffffffffffffffffffffffffffffffffff1673ffffffffffffffffffffffffffffffffffffffff16815260200190815260200160002060008473ffffffffffffffffffffffffffffffffffffffff1673ffffffffffffffffffffffffffffffffffffffff168152602001908152602001600020819055508173ffffffffffffffffffffffffffffffffffffffff168373ffffffffffffffffffffffffffffffffffffffff167f8c5be1e5ebec7d5bd14f71427d1e84f3dd0314c0f7b2291e5b200ac8c7c3b92583604051610fb091906119c0565b60405180910390a3505050565b6000610fc98484610c94565b90507fffffffffffffffffffffffffffffffffffffffffffffffffffffffffffffffff81146110435781811015611035576040517f08c379a000000000000000000000000000000000000000000000000000000000815260040161102c90611ff3565b60405180910390fd5b6110428484848403610df4565b5b50505050565b600073ffffffffffffffffffffffffffffffffffffffff168373ffffffffffffffffffffffffffffffffffffffff16036110b8576040517f08c379a00000000000000000000000000000000000000000000000000000000081526004016110af90612085565b60405180910390fd5b600073ffffffffffffffffffffffffffffffffffffffff168273ffffffffffffffffffffffffffffffffffffffff1603611127576040517f08c379a000000000000000000000000000000000000000000000000000000000815260040161111e90612117565b60405180910390fd5b61113283838361156b565b60008060008573ffffffffffffffffffffffffffffffffffffffff1673ffffffffffffffffffffffffffffffffffffffff168152602001908152602001600020549050818110156111b8576040517f08c379a00000000000000000000000000000000000000000000000000000000081526004016111af906121a9565b60405180910390fd5b8181036000808673ffffffffffffffffffffffffffffffffffffffff1673ffffffffffffffffffffffffffffffffffffffff16815260200190815260200160002081905550816000808573ffffffffffffffffffffffffffffffffffffffff1673ffffffffffffffffffffffffffffffffffffffff168152602001908152602001600020600082825461124b9190611cda565b925050819055508273ffffffffffffffffffffffffffffffffffffffff168473ffffffffffffffffffffffffffffffffffffffff167fddf252ad1be2c89b69c2b068fc378daa952ba7f163c4a11628f55a4df523b3ef846040516112af91906119c0565b60405180910390a36112c2848484611570565b50505050565b600073ffffffffffffffffffffffffffffffffffffffff168273ffffffffffffffffffffffffffffffffffffffff1603611337576040517f08c379a000000000000000000000000000000000000000000000000000000000815260040161132e90612215565b60405180910390fd5b6113436000838361156b565b80600260008282546113559190611cda565b92505081905550806000808473ffffffffffffffffffffffffffffffffffffffff1673ffffffffffffffffffffffffffffffffffffffff16815260200190815260200160002060008282546113aa9190611cda565b925050819055508173ffffffffffffffffffffffffffffffffffffffff16600073ffffffffffffffffffffffffffffffffffffffff167fddf252ad1be2c89b69c2b068fc378daa952ba7f163c4a11628f55a4df523b3ef8360405161140f91906119c0565b60405180910390a361142360008383611570565b5050565b61142f610dec565b73ffffffffffffffffffffffffffffffffffffffff1661144d610a03565b73ffffffffffffffffffffffffffffffffffffffff16146114a3576040517f08c379a000000000000000000000000000000000000000000000000000000000815260040161149a90612281565b60405180910390fd5b565b6000600560009054906101000a900473ffffffffffffffffffffffffffffffffffffffff16905081600560006101000a81548173ffffffffffffffffffffffffffffffffffffffff021916908373ffffffffffffffffffffffffffffffffffffffff1602179055508173ffffffffffffffffffffffffffffffffffffffff168173ffffffffffffffffffffffffffffffffffffffff167f8be0079c531659141344cd1fd0a4f28419497f9722a3daafe3b4186f6b6457e060405160405180910390a35050565b505050565b505050565b82805461158190611c7a565b90600052602060002090601f0160209004810192826115a357600085556115ea565b82601f106115bc57805160ff19168380011785556115ea565b828001600101855582156115ea579182015b828111156115e95782518255916020019190600101906115ce565b5b5090506115f791906115fb565b5090565b5b808211156116145760008160009055506001016115fc565b5090565b600081519050919050565b600082825260208201905092915050565b60005b83811015611652578082015181840152602081019050611637565b83811115611661576000848401525b50505050565b6000601f19601f8301169050919050565b600061168382611618565b61168d8185611623565b935061169d818560208601611634565b6116a681611667565b840191505092915050565b600060208201905081810360008301526116cb8184611678565b905092915050565b6000604051905090565b600080fd5b600080fd5b600073ffffffffffffffffffffffffffffffffffffffff82169050919050565b6000611712826116e7565b9050919050565b61172281611707565b811461172d57600080fd5b50565b60008135905061173f81611719565b92915050565b6000819050919050565b61175881611745565b811461176357600080fd5b50565b6000813590506117758161174f565b92915050565b60008060408385031215611792576117916116dd565b5b60006117a085828601611730565b92505060206117b185828601611766565b9150509250929050565b60008115159050919050565b6117d0816117bb565b82525050565b60006020820190506117eb60008301846117c7565b92915050565b600080fd5b600080fd5b7f4e487b7100000000000000000000000000000000000000000000000000000000600052604160045260246000fd5b61183382611667565b810181811067ffffffffffffffff82111715611852576118516117fb565b5b80604052505050565b60006118656116d3565b9050611871828261182a565b919050565b600067ffffffffffffffff821115611891576118906117fb565b5b61189a82611667565b9050602081019050919050565b82818337600083830152505050565b60006118c96118c484611876565b61185b565b9050828152602081018484840111156118e5576118e46117f6565b5b6118f08482856118a7565b509392505050565b600082601f83011261190d5761190c6117f1565b5b813561191d8482602086016118b6565b91505092915050565b60008060006060848603121561193f5761193e6116dd565b5b600084013567ffffffffffffffff81111561195d5761195c6116e2565b5b611969868287016118f8565b935050602084013567ffffffffffffffff81111561198a576119896116e2565b5b611996868287016118f8565b92505060406119a786828701611730565b9150509250925092565b6119ba81611745565b82525050565b60006020820190506119d560008301846119b1565b92915050565b6000806000606084860312156119f4576119f36116dd565b5b6000611a0286828701611730565b9350506020611a1386828701611730565b9250506040611a2486828701611766565b9150509250925092565b600060ff82169050919050565b611a4481611a2e565b82525050565b6000602082019050611a5f6000830184611a3b565b92915050565b600060208284031215611a7b57611a7a6116dd565b5b6000611a8984828501611766565b91505092915050565b611a9b81611707565b82525050565b6000608082019050611ab660008301876119b1565b8181036020830152611ac88186611678565b90508181036040830152611adc8185611678565b9050611aeb6060830184611a92565b95945050505050565b600063ffffffff82169050919050565b611b0d81611af4565b8114611b1857600080fd5b50565b600081359050611b2a81611b04565b92915050565b600080600060608486031215611b4957611b486116dd565b5b6000611b5786828701611766565b9350506020611b6886828701611730565b9250506040611b7986828701611b1b565b9150509250925092565b600060208284031215611b9957611b986116dd565b5b6000611ba784828501611730565b91505092915050565b6000602082019050611bc56000830184611a92565b92915050565b60008060408385031215611be257611be16116dd565b5b6000611bf085828601611766565b9250506020611c0185828601611730565b9150509250929050565b60008060408385031215611c2257611c216116dd565b5b6000611c3085828601611730565b9250506020611c4185828601611730565b9150509250929050565b7f4e487b7100000000000000000000000000000000000000000000000000000000600052602260045260246000fd5b60006002820490506001821680611c9257607f821691505b602082108103611ca557611ca4611c4b565b5b50919050565b7f4e487b7100000000000000000000000000000000000000000000000000000000600052601160045260246000fd5b6000611ce582611745565b9150611cf083611745565b9250827fffffffffffffffffffffffffffffffffffffffffffffffffffffffffffffffff03821115611d2557611d24611cab565b5b828201905092915050565b7f4e487b7100000000000000000000000000000000000000000000000000000000600052603260045260246000fd5b7f45524332303a2064656372656173656420616c6c6f77616e63652062656c6f7760008201527f207a65726f000000000000000000000000000000000000000000000000000000602082015250565b6000611dbb602583611623565b9150611dc682611d5f565b604082019050919050565b60006020820190508181036000830152611dea81611dae565b9050919050565b7f4f776e61626c653a206e6577206f776e657220697320746865207a65726f206160008201527f6464726573730000000000000000000000000000000000000000000000000000602082015250565b6000611e4d602683611623565b9150611e5882611df1565b604082019050919050565b60006020820190508181036000830152611e7c81611e40565b9050919050565b7f45524332303a20617070726f76652066726f6d20746865207a65726f2061646460008201527f7265737300000000000000000000000000000000000000000000000000000000602082015250565b6000611edf602483611623565b9150611eea82611e83565b604082019050919050565b60006020820190508181036000830152611f0e81611ed2565b9050919050565b7f45524332303a20617070726f766520746f20746865207a65726f20616464726560008201527f7373000000000000000000000000000000000000000000000000000000000000602082015250565b6000611f71602283611623565b9150611f7c82611f15565b604082019050919050565b60006020820190508181036000830152611fa081611f64565b9050919050565b7f45524332303a20696e73756666696369656e7420616c6c6f77616e6365000000600082015250565b6000611fdd601d83611623565b9150611fe882611fa7565b602082019050919050565b6000602082019050818103600083015261200c81611fd0565b9050919050565b7f45524332303a207472616e736665722066726f6d20746865207a65726f20616460008201527f6472657373000000000000000000000000000000000000000000000000000000602082015250565b600061206f602583611623565b915061207a82612013565b604082019050919050565b6000602082019050818103600083015261209e81612062565b9050919050565b7f45524332303a207472616e7366657220746f20746865207a65726f206164647260008201527f6573730000000000000000000000000000000000000000000000000000000000602082015250565b6000612101602383611623565b915061210c826120a5565b604082019050919050565b60006020820190508181036000830152612130816120f4565b9050919050565b7f45524332303a207472616e7366657220616d6f756e742065786365656473206260008201527f616c616e63650000000000000000000000000000000000000000000000000000602082015250565b6000612193602683611623565b915061219e82612137565b604082019050919050565b600060208201905081810360008301526121c281612186565b9050919050565b7f45524332303a206d696e7420746f20746865207a65726f206164647265737300600082015250565b60006121ff601f83611623565b915061220a826121c9565b602082019050919050565b6000602082019050818103600083015261222e816121f2565b9050919050565b7f4f776e61626c653a2063616c6c6572206973206e6f7420746865206f776e6572600082015250565b600061226b602083611623565b915061227682612235565b602082019050919050565b6000602082019050818103600083015261229a8161225e565b905091905056fea264697066735822122046e4758c4eaaf5abfcc0a1a5ecd5f4521999a49a2131c677dcee21c0c206c8f964736f6c634300080d0033",
  "immutableReferences": {},
  "source": "// SPDX-License-Identifier: MIT\n// Tells the Solidity compiler to compile only from v0.8.13 to v0.9.0\npragma solidity ^0.8.13;\n\nimport \"@openzeppelin/contracts/token/ERC20/ERC20.sol\";\nimport \"@openzeppelin/contracts/access/Ownable.sol\";\n\n\ncontract Grader is ERC20, Ownable {\n\n\tevent TeacherEvent(address indexed _from, uint256 indexed _id, string msg);\n\t\n\tconstructor() ERC20(\"CanerCOIN\", \"CNRC\") {\n\n\t\ttransferOwnership(msg.sender);\n\t\t\n    }\n\n\tstruct Teacher {\n\t\tuint256 id;\n\t\tstring name;\n\t\tstring deparment;\n\t\taddress addr;\n\t}\n\n\tuint256 internal id = 0;\n\n\n\n\tTeacher[] public teachers;\n\n\tmapping(address => address[]) public teacherToStudents;\n\tmapping(address => uint256) public teacherAddrToID;\n\t\n\n\n\tmodifier onlyTeacher(uint256 _id) {\n\t\trequire(msg.sender == teachers[_id].addr);\n\t\t_;\n\t}\n\n\tfunction setTeacher( string memory  name, string memory department, address addr) public {\n\t\tTeacher memory teacher = Teacher(\n\t\t\tid,\n\t\t\tname,\n\t\t\tdepartment,\n\t\t\taddr\n\t\t);\n\n\t\tteachers.push(teacher);\n\n\t\temit TeacherEvent(msg.sender, id, name);\n\n\t\tid += 1;\n\t}\n\t\n\n\tfunction addStudent(uint256 teacherID, address studentAddr) onlyTeacher(teacherID) public {\n\t\tteacherToStudents[msg.sender].push(studentAddr);\n\t}\n\n\tfunction giveReward(uint256 teacherID,address studentAddr, uint32 grade) onlyTeacher(teacherID) public {\n\t\tif(grade <= 100 && grade > 90) {\n\t\t\t_mint(studentAddr, 100);\n\t\t} else if( grade > 80 && grade <= 90) {\n\t\t\t_mint(studentAddr, 90);\n\t\t} else if( grade > 70 && grade <= 80) {\n\t\t\t_mint(studentAddr, 80);\n\t\t} else if( grade > 60 && grade <= 70) {\n\t\t\t_mint(studentAddr, 70);\n\t\t} else if( grade > 50 && grade <= 60) {\n\t\t\t_mint(studentAddr, 60);\n\t\t}\n\t}\n}\n",
  "sourcePath": "/Users/ilkerkaraca/Desktop/Caner/contracts/Grader.sol",
  "compiler": {
    "name": "solc",
    "version": "0.8.13+commit.abaa5c0e.Emscripten.clang"
  },
  "schemaVersion": "3.4.10",
  "updatedAt": "2022-10-09T17:59:36.320Z",
  "networkType": "ethereum",
  "devdoc": {
    "kind": "dev",
    "methods": {
      "allowance(address,address)": {
        "details": "See {IERC20-allowance}."
      },
      "approve(address,uint256)": {
        "details": "See {IERC20-approve}. NOTE: If `amount` is the maximum `uint256`, the allowance is not updated on `transferFrom`. This is semantically equivalent to an infinite approval. Requirements: - `spender` cannot be the zero address."
      },
      "balanceOf(address)": {
        "details": "See {IERC20-balanceOf}."
      },
      "decimals()": {
        "details": "Returns the number of decimals used to get its user representation. For example, if `decimals` equals `2`, a balance of `505` tokens should be displayed to a user as `5.05` (`505 / 10 ** 2`). Tokens usually opt for a value of 18, imitating the relationship between Ether and Wei. This is the value {ERC20} uses, unless this function is overridden; NOTE: This information is only used for _display_ purposes: it in no way affects any of the arithmetic of the contract, including {IERC20-balanceOf} and {IERC20-transfer}."
      },
      "decreaseAllowance(address,uint256)": {
        "details": "Atomically decreases the allowance granted to `spender` by the caller. This is an alternative to {approve} that can be used as a mitigation for problems described in {IERC20-approve}. Emits an {Approval} event indicating the updated allowance. Requirements: - `spender` cannot be the zero address. - `spender` must have allowance for the caller of at least `subtractedValue`."
      },
      "increaseAllowance(address,uint256)": {
        "details": "Atomically increases the allowance granted to `spender` by the caller. This is an alternative to {approve} that can be used as a mitigation for problems described in {IERC20-approve}. Emits an {Approval} event indicating the updated allowance. Requirements: - `spender` cannot be the zero address."
      },
      "name()": {
        "details": "Returns the name of the token."
      },
      "owner()": {
        "details": "Returns the address of the current owner."
      },
      "renounceOwnership()": {
        "details": "Leaves the contract without owner. It will not be possible to call `onlyOwner` functions anymore. Can only be called by the current owner. NOTE: Renouncing ownership will leave the contract without an owner, thereby removing any functionality that is only available to the owner."
      },
      "symbol()": {
        "details": "Returns the symbol of the token, usually a shorter version of the name."
      },
      "totalSupply()": {
        "details": "See {IERC20-totalSupply}."
      },
      "transfer(address,uint256)": {
        "details": "See {IERC20-transfer}. Requirements: - `to` cannot be the zero address. - the caller must have a balance of at least `amount`."
      },
      "transferFrom(address,address,uint256)": {
        "details": "See {IERC20-transferFrom}. Emits an {Approval} event indicating the updated allowance. This is not required by the EIP. See the note at the beginning of {ERC20}. NOTE: Does not update the allowance if the current allowance is the maximum `uint256`. Requirements: - `from` and `to` cannot be the zero address. - `from` must have a balance of at least `amount`. - the caller must have allowance for ``from``'s tokens of at least `amount`."
      },
      "transferOwnership(address)": {
        "details": "Transfers ownership of the contract to a new account (`newOwner`). Can only be called by the current owner."
      }
    },
    "version": 1
  },
  "userdoc": {
    "kind": "user",
    "methods": {},
    "version": 1
  }
}